:1000000002308A00B22A0000FF00030E8301A10023
:100010000A08A0008A010408A2007708A300780853
:10002000A4007908A5007A08A600831383128C30F7
:100030008400001C1D280C182E2822088400230888
:10004000F7002408F8002508F9002608FA0020081F
:100050008A00210E8300FF0E7F0E09008A110A120A
:100060003128FE308F00CE308E00A7012708043CD7
:10007000031C8E293D302707840083138008031951
:100080008C294230270784008313800803194F29E5
:10009000270DF700F70DFC30F7057708293E84009F
:1000A000831300088316B200840A0008B300840A90
:1000B0000008B400840A0008B500B208031D6928CE
:1000C000B308031D6928B408031D6928B50803197E
:1000D000C0288312270DF700F70DFC30F7057708CD
:1000E000293EF800FA010318FA0A78088316B200CC
:1000F0007A08B3008312270DF700F70DFC30F705DF
:100100007708293E8400831300088316B400840A0C
:100110000008B500840A0008B600840A0008B70089
:10012000FD30840701303402F7003508F800003054
:10013000031C0130F8023608F9000030031C0130BE
:10014000F9023708FA000030031C0130FA027A087D
:10015000B7007908B6007808B5007708B40032080F
:10016000840083133318831734088000840A350809
:100170008000840A36088000840A370880004D29F0
:1001800065308312270784008313000BDF283D307E
:100190002707840083138001C301C2010310270DC8
:1001A000473E84008313840A0008FA008403000891
:1001B000840083137A188317013080004E2965303C
:1001C0002707840083130008033C031D4E290310F6
:1001D000270D473E84008313840A0008FA00840335
:1001E0000008840083137A188317000B0729031073
:1001F000270D473E84008313840A0008FA00840315
:100200000008840083137A188317800117290310CC
:10021000270D473E84008313840A0008FA008403F4
:100220000008840083137A18831701308000270D9B
:10023000F700F70DFC30F7057708293EF800FA01C2
:100240000318FA0A78088316B2007A08B3008312FA
:10025000270DF700F70DFC30F7057708513E8400B5
:1002600083130008F700840A0008F800840A0008D5
:10027000F900840A0008FA00831632088400831308
:100280003318831777088000840A78088000840A6E
:1002900079088000840A7A08800083128C29270D4F
:1002A000F700F70DFC30F7057708293EF800FA0152
:1002B0000318FA0A78088316B2007A08B30083128A
:1002C000270DF700F70DFC30F7057708513E840045
:1002D00083130008F700840A0008F800840A000865
:1002E000F900840A0008FA00831632088400831398
:1002F0003318831777088000840A78088000840AFE
:1003000079088000840A7A08800042308312270727
:100310008400831301308000A70A36280C108A114C
:100320000A121D28B5309000FE308F00CE308E00AE
:1003300083160C14C03083128B048A110A12C12A4E
:1003400020308316B000AC01AD01AE01AF0127082B
:10035000FA002608F9002508F8002408F700031021
:10036000771CC0292808AC0729080318290FAD07F6
:100370002A0803182A0FAE072B0803182B0FAF0704
:10038000AF0CAE0CAD0CAC0CFA0CF90CF80CF70C75
:10039000B00BAF29831208002808043C031C632A11
:1003A0000310280D473E84008313840A71088000DF
:1003B0008403700880006530280784008313720866
:1003C00080007B08013A0319EF290B3A0319F92938
:1003D0006E3A0319132A143A03192D2A492A76086A
:1003E0008316A3007508A2007408A1007308A0007A
:1003F0004B2A76088316A7007508A6007408A50086
:100400007308A400AB01AA01A9010A30A800831255
:10041000A0217A088316A3007908A2007808A10019
:100420007708A0004B2A76088316A7007508A60057
:100430007408A5007308A400AB01AA01A9016430E7
:10044000A8008312A0217A088316A3007908A200CD
:100450007808A1007708A0004B2A76088316A70029
:100460007508A6007408A5007308A400AB01AA01D2
:100470001730A9007030A8008312A0217A088316D3
:10048000A3007908A2007808A1007708A0004B2AF1
:10049000831283164B2A8312280DF700F70DFC30C8
:1004A000F7057708513E84008313831620088000E7
:1004B000840A21088000840A22088000840A230814
:1004C00080008312A80A08007108F4007008F30085
:1004D000F5017508043C031C852A0310750D473E81
:1004E00084008313840A0008FC0084030008FB00D6
:1004F00073087B02031D832A74087C02031D832A70
:100500007508F800872AF50A692AFF30F80078088C
:10051000F2007208FF3C0319B12A3D3072078400D3
:10052000831301308000653072078400831301302B
:100530008000003A0319A22A7008840083137118FE
:1005400083178001653072078400831303308000B5
:10055000003A0319B12A70088400831371188317B5
:1005600080010800840183131F30830583161F1444
:100570009F141F159F1107309C00FF308312EA0063
:1005800092290030831687008312EA0083168600C2
:100590008312EA008316870183128701F1016B3011
:1005A000F0000330F200F601F501F4016430F300CD
:1005B0000130FB00CC21F1016C30F0000330F2007F
:1005C000F601F501F401C830F3000130FB00CC2145
:1005D000F1016D30F0000330F200F601F501013059
:1005E000F4002C30F3000130FB00CC21F1016E301F
:1005F000F0000330F200F601F5010130F400903014
:10060000F3000130FB00CC21F1016F30F00003302A
:10061000F200F601F5010130F4002C30F300013056
:10062000FB00CC21F1016B30F0006422F1016C3051
:10063000F0006422F1016D30F0006422F1016E30AF
:10064000F0006422F1016F30F0006422EB0803191E
:10065000302B6A106A088316870083120714362B22
:100660006A106A088316870083120710EC080319C2
:10067000402BEA106A088316870083128714462BE2
:10068000EA106A088316870083128710ED080319A1
:10069000502B6A116A088316870083120715562BA0
:1006A0006A116A088316870083120711EE0803197E
:1006B000602BEA116A088316870083128715662B60
:1006C000EA116A088316870083128711EF0803195D
:1006D000702B6A126A088316870083120716762B1E
:1006E0006A126A088316870083120712262B63009A
:02400E003A3F37
:00000001FF
;PIC16F877A
;CRC=80F4  CREATED="22-Mar-20 21:21"
